:020000040000FA
:1000000048140010E1000000E9000000EB000000CF
:10001000ED000000EF000000F10000000000000013
:10002000000000000000000000000000F3000000DD
:10003000F5000000000000006B010000B91D000089
:10004000FB000000FB000000FB000000FB000000C4
:10005000FB000000FB000000FB000000FB000000B4
:10006000FB000000FB000000FB000000FB000000A4
:10007000FB000000FB000000FB000000FB00000094
:10008000FB000000FB000000FB000000FB00000084
:10009000FB000000FB000000FB000000FB00000074
:1000A000FB000000FB000000FB000000FB00000064
:1000B000FB000000F91B0000FB000000FB0000003B
:1000C000FB000000FB000000FB000000DFF80CD08C
:1000D00000F018F800480047611F000048140010A5
:1000E0000648804706480047FEE7FEE7FEE7FEE7D2
:1000F000FEE7FEE7FEE7FEE7FEE7FEE7E11D0000A4
:10010000CD000000064C074D06E0E06840F001031A
:1001100094E8070098471034AC42F6D3FFF7DAFFB3
:10012000E021000000220000EFF3108072B670475B
:1001300080F3108870471D484FF0FF0101700020C8
:1001400080F309881A48012101701A484FF0805144
:10015000016062B6FEE717484FF0805101607047BA
:1001600014484FF080510160704772B6EFF3098078
:1001700028B1203880E8F00F0F49096808600F485F
:100180000F490A7802700C480E490A68026010682C
:1001900090E8F00F203080F309884EF0040E62B62C
:1001A00070474FF0010080F31088704722ED00E0A7
:1001B0002E00001004ED00E03400001023000010B9
:1001C000240000103C000010704710B501F0ADFC99
:1001D00001F06EFD10BD7047704770470A48006817
:1001E0004FF47A71B0FBF1F4204601F06FF800F0A3
:1001F0007FFBFFF7EAFF00BF00231A4601211846E4
:1002000000F052FEF8E70000000000107047704751
:1002100001290AD10B4A12680B4B00EA030342EA98
:1002200003020A4BC3F8C4200AE049B9054A126820
:10023000054B23EA000302EA0302044BC3F8C4207F
:1002400070470000C4C00F40DEF7EFEF00C00F4062
:1002500070B506460D480468304600F019F80546AA
:1002600035B1012D06D0022D06D0032D08D105E0B1
:10027000042505E0012503E0022501E0082500BF73
:1002800000BFB4FBF5F4204670BD00000000001074
:100290000146202903D20A46054B186803E0A1F164
:1002A0002002044B186820FA02F303F003007047A1
:1002B000A8C10F40ACC10F4070B506460C46304691
:1002C00000F05AF8054605B1EC6170BD2DE9F0412A
:1002D00007460D461646384600F04EF804463CB137
:1002E0001EB120682843206002E02068A8432060F7
:1002F000BDE8F0817047704770477047FFFFFFFF10
:1003000010B50A46202801D2034601E0A0F12003DF
:100310001946202814D2154B1B684FF0030404FA29
:1003200001F423EA0403124CC4F8A8310F4B1B68F4
:1003300002FA01F443EA04030D4CC4F8A83113E0B7
:100340000C4B1B684FF0030404FA01F423EA040386
:10035000074CC4F8AC31074B1B6802FA01F443EABE
:100360000403034CC4F8AC3110BD0000A8C10F4019
:1003700000C00F40ACC10F4001460020052912D239
:10038000DFE801F00305080B0E0008480CE0074801
:10039000203009E00548403006E00448603003E0C2
:1003A0000248803000E000BF00BF704700C0092055
:1003B00070B506460C463046FFF7DEFF054605B130
:1003C000AC6170BD1D481E481E481F481F4820488C
:1003D00020482148214822482248234823482448CD
:1003E000244825482548264826482748274828489D
:1003F0002848294829482A482A482B482B482C486D
:100400002C482D482D482E482E482F482F4830483C
:10041000304831483148324832483348334834480C
:1004200034483548354836483648374837483848DC
:1004300038483948394800BF704700006C20000038
:10044000702000007620000078200000742000005A
:100450007A2000007C2000007E2000008020000028
:1004600082200000842000008620000088200000F8
:100470008A2000008C2000008E20000090200000C8
:100480009220000094200000962000009820000098
:100490009A2000009C2000009E200000A020000068
:1004A000A2200000A4200000A6200000A820000038
:1004B000AA200000AC200000AE200000B020000008
:1004C000B2200000B4200000B6200000B8200000D8
:1004D000BA200000BC200000BE200000C2200000A6
:1004E000C4200000C6200000C8200000840E0010B8
:1004F00004120010CC200000CE200000D02000000C
:10050000D2200000D4200000D6200000D820000017
:10051000DA200000DC200000CA200000DE200000FD
:100520002DE9F04105460E46144600271DB904206A
:100530002070BDE8F08116B90C202070F9E7114851
:10054000007810B112202070F3E72878012808D035
:10055000022807D0032802D0042804D100E000BFFD
:1005600000BF00BF02E001202070E2E700BFFFF7FC
:10057000DBFD07466E613846FFF7DAFD002020708C
:1005800000BFD6E72100001010B500F019F801F007
:1005900003F801F02BF801F04BF800F0CDFF00F06C
:1005A0008DFF01F0DBF801F005F901F081F801F0B1
:1005B000A5F800F053FDFFF79DFEFFF703FF10BD08
:1005C00000200149088070470400001010B5002485
:1005D0001A480078012830D1FFF7A6FD04461848D4
:1005E000007820B116480078401E1549087014485C
:1005F0000078F8B913480078E0B901F03DF91248E5
:100600001249097850F82100114908600F48007814
:100610001049097888420DD00D480068C06B401C15
:100620000B490968C8630C480068401C0A49086007
:10063000FFF796FD2046FFF77BFD10BD2E00001052
:1006400021000010220000101C05001024000010E2
:100650003C000010230000100800001010B500241A
:100660000B480078012811D1FFF75EFD04460948C8
:10067000007840B908480078FF2804D2064800787E
:10068000401C054908702046FFF752FD10BD0000D0
:100690002E000010210000102200001010B50024D0
:1006A00013480078012821D1FFF73EFD0446114888
:1006B0000078C0B10F480078401E0E490870084607
:1006C000007860B90C48007828B92046FFF730FD63
:1006D00001F098F80AE02046FFF72AFD06E02046E0
:1006E000FFF726FD02E02046FFF722FD10BD0000C7
:1006F0002E000010220000102100001070B50546E9
:1007000000261048007808B1002070BDFFF70CFDEE
:1007100006460D480468006820B10B480068406830
:10072000094908603046FFF703FD4CB103202070F3
:1007300025810020606005A06061204600F0B0FEC9
:100740002046E2E7210000100C0000103F000000EE
:100750002DE9F04105460E46144600271DB9042038
:100760002070BDE8F0812878032802D00120207095
:10077000F7E73248007810B102202070F1E73048E6
:10078000007810B10D202070EBE7FFF7CDFC074695
:10079000288940B12889401E28813846FFF7C8FCC7
:1007A00000202070DDE72748006890F8340040F012
:1007B00001002449096881F83400002021490968B2
:1007C00081F835001F4800680663284600F026FEC1
:1007D0003846FFF7ADFC01F015F8FFF7A5FC07461A
:1007E0001848006890F8350020B1012809D0022887
:1007F00006D102E0002020700BE00E20207008E0FF
:1008000000BF29460F48006800F0C6FD0A2020708E
:1008100000BF00BF00200B49096881F83400094976
:10082000096881F8350007490968C8610549096800
:1008300008623846FFF77CFC00BF92E721000010F9
:10084000220000103400001070B5044600250CB9D9
:10085000042070BD2078032801D00120F9E7FFF7BC
:1008600063FC0546A07A60B10023012219462046A8
:1008700000F044FD2846FFF75BFC00F0C3FF0020BA
:10088000E7E720894FF6FF71884207D22089401C94
:1008900020812846FFF74CFC0020DAE72846FFF7C6
:1008A00047FC3320D5E7000010B50B48007890B91D
:1008B00000F0E2FF09480078094908700948074933
:1008C000097850F82100084908600846006807497F
:1008D0000860FFF730FC10BD2E000010240000104F
:1008E000230000101C0500103C0000103400001014
:1008F00010B50024022000F097FAFFF715FC04461B
:1009000000200B4908602046FFF712FC642000F02D
:100910008BFAFFF709FC04460548006805490860A2
:100920000120054908702046FFF702FC10BD0000B9
:1009300030000010180000102000001010B5044610
:100940002046FFF741FC10BD2DE9F04F85B08146F0
:100950008A4693461C46DDE90F78129D00200390DD
:100960003F2C03D92A2005B0BDE8F08FFFF7DCFB50
:1009700003902248007820B10398FFF7D9FB3C2070
:10098000F1E71F4850F8240088BB01201C4941F8BA
:1009900024000398FFF7CCFB2A464146384601F075
:1009A000A5F82B465A465146484600F08DF904906A
:1009B0001198CDE9008002953A4620460E9B049995
:1009C00000F070FF064636B90E48007801280CD1B9
:1009D00000F018FF09E0FFF7A7FB0390002008498B
:1009E00041F824000398FFF7A3FB3046BBE7FFE77D
:1009F0000398FFF79DFB2820B5E7000021000010B9
:100A00001C0500102E00001010B504462046FFF70C
:100A1000E2FB10BD2DE9F041054600274F48007864
:100A200010B14020BDE8F0813F2D01D13E20F9E713
:100A30003F2D03D3FF2D01D02A20F3E7FFF774FBEE
:100A40000746FF2D03D14648006890F836504548C8
:100A500050F8254024B93846FFF76AFB4320E1E708
:100A6000012C04D13846FFF763FB3D20DAE714F888
:100A7000380F3D49085C6178C943C9B20840217804
:100A8000394A505414F838091146085C40B994F8B2
:100A90003A00C043C0B2354909780840334908706C
:100AA000E06918B12046E16900F076FC206A18B1CF
:100AB0002046216A00F089FCA66A16B1304600F093
:100AC00029FD0020206384F8340084F8350028488C
:100AD0000078FF2804D226480078401C244908707A
:100AE0003846FFF725FBFFF707FCFFF71DFB07461E
:100AF0001F48007820B11E480078401E1C4908702D
:100B0000204600F041F81B480078401E1949087043
:100B10000020144941F82500A06930B9002061691E
:100B2000886115496069086005E0D4E905014861FC
:100B3000D4E9051088611148006860610F480460BD
:100B40000FA020653846FFF7F3FA0E480078012819
:100B500001D100F057FE002064E7000021000010E2
:100B6000340000101C0500102600001025000010A5
:100B7000220000102F00001040000010380000106C
:100B80003F0000002E00001010B504462046FFF77D
:100B900023FB10BD10B5FFF720FB10BD2DE9F04180
:100BA00005460F4614464FF000083F2D05D9FF2D8E
:100BB00003D02A202070BDE8F08117B90C202070E6
:100BC000F9E71448007810B112202070F3E7FFF71E
:100BD000ABFA8046FF2D03D10F48006890F83650DD
:100BE0000E4850F825602EB94046FFF7A1FA432081
:100BF0002070E0E7012E05D14046FFF799FA432027
:100C00002070D8E737654046FFF792FA0020207041
:100C100000BFD0E721000010340000101C050010B8
:100C200010B5FFF7F3FA10BD2DE9F04706460C4664
:100C30004FF0000A3F2E04D9FF2E02D02A20BDE833
:100C4000F0870CB90920FAE7002020606060FFF708
:100C50006BFA8246FF2E03D11948006890F836607F
:100C6000184850F8265025B95046FFF761FA43203E
:100C7000E5E7012D04D15046FFF75AFA4320DEE79D
:100C8000288A10F0010F04D15046FFF751FA452091
:100C9000D5E70027D5F80C90D5F808805046FFF727
:100CA00047FA00E07F1C58F8041B0029FAD0B8006E
:100CB0002060A9EB0700800060600020BFE7000013
:100CC000340000101C05001070B5044610464FF0AB
:100CD00080750560051F28462C60214E051F28469B
:100CE0002E604FF01236051F28462E604FF0033657
:100CF000051F28462E604FF00236051F28462E603D
:100D00007610051F28462E60051F284629604FF0E3
:100D10001136051F28462E604FF01036051F284655
:100D20002E604FF00936051F28462E604FF008361A
:100D3000051F28462E604FF00736051F28462E60F7
:100D40004FF00636051F28462E604FF00536051F6A
:100D500028462E604FF00436051F28462E6070BDD1
:100D6000111A00002DE9F04105464FF000083F2D13
:100D700002D14720BDE8F0813F2D03D3FF2D01D0E4
:100D80002A20F7E7FFF7D0F98046FF2D05D122484A
:100D9000006890F83650012608E01F48006890F877
:100DA0003600A84201D1012600E000261B4850F879
:100DB000254024B94046FFF7BBF94820DAE7012C6B
:100DC00004D14046FFF7B4F94320D3E794F83870D4
:100DD0001348C05D94F83910C943C9B2084010499E
:100DE000C8550846C05D40B994F83A00C043C0B247
:100DF0000C49097808400B49087094F8340040F019
:100E0000080084F834004046FFF792F9012E01D122
:100E100000F0F8FC0020ADE7340000101C050010C5
:100E2000260000102500001070B505460026194860
:100E3000007800B170BD1848007800B1FAE73DB302
:100E4000FFF772F906461548006890F838401448D4
:100E5000005D1249096891F83910C943C9B20840C8
:100E60000F4908550846005D50B90C48006890F8D5
:100E70003A00C043C0B20B490978084009490870DC
:100E80000648006805633046FFF752F900F0BAFCE7
:100E900000BFCFE721000010220000103400001036
:100EA00026000010250000102DE9F04107460D46F0
:100EB00016461C461B48007810B15520BDE8F0814D
:100EC0001948007808B13220F8E727B91DB916B9DA
:100ED0000CB95420F2E73B2D01D95120EEE73B2E0F
:100EE00001D95220EAE7B4F57A7F01D35320E5E730
:100EF0004FF47A7060434FF47A71B0FBF1F14FF424
:100F000061607843C5EB051200EB8200304400EBD2
:100F10004002C2EBC01001EBC0084046FFF784FF5F
:100F20000020CBE7210000102200001070B5002641
:100F300000F076F8FFF7F8F8064633480068401CE2
:100F4000314908603046FFF7F3F83048007801284F
:100F500057D12F48007820B1012804D0022809D1A8
:100F600003E001250BE0002509E0012501202849C7
:100F7000087004E0012500202549087000BF00BF6B
:100F800005B970BD2348046837E0FFF7CDF8064681
:100F9000206B70B3206B401E2063206B48BB94F81D
:100FA000340010F0370F09D014F8340F00F0C800E7
:100FB000207001206070A4F1340402E0002084F865
:100FC000350094F8340010F0080F12D104F1380401
:100FD000A0781149097840EA01000F49087020788B
:100FE0000E49085C617840EA010014F838190B4A90
:100FF000505464693046FFF79BF894F836003F2858
:10100000C3D100BFBDE70000500000102E0000104B
:1010100044000010400000102500001026000010C1
:1010200010B5FFF7F4F807480088401C0549088010
:1010300008460088642803D30020088000F004F8E4
:1010400010BD00000400001010B503480068FFF751
:10105000FBFB0446204610BD60000010F8B54FF4BD
:101060002071284800F070FB4021274800F06CFBFD
:10107000002514E0681C86B205EB8500214901EBD0
:10108000C00406EB860001EBC0076420207000203E
:1010900084F82500E7601DA02062681C85B20F2D32
:1010A000E8D305EB8500174901EBC00464202070EC
:1010B000002084F82500E06014A02062002014497C
:1010C0000860144908801020134908800D4813490E
:1010D00008600120FFF712FB114908600020FFF7AC
:1010E0000DFB104908606A460FA10D480068FFF724
:1010F00017FA6A4611A10B480068FFF711FA00F0D1
:1011000027F8F8BD840E0010041200103F00000004
:101110005800001056000010540000106400001029
:101120005C0000106000001075432F4F532D49499B
:1011300020546D724C6F636B0000000075432F4F9D
:10114000532D494920546D725369676E616C0000DC
:1011500000B587B00320002140220A4BCDE90132BF
:10116000CDE903104FF6FD703D23064AFC32009096
:101170000548FFF7E9FB06AA04A13D20FFF70EFD95
:1011800007B000BD041100100912000075432F4F75
:10119000532D494920546D720000000070B50B4674
:1011A000032580F82550012B05D1154EC5693668F9
:1011B000354445610CE085692DB9114EC569366825
:1011C0003544456104E00E4E856936683544456115
:1011D000456905F007040B4D05EBC4010D682DB9F9
:1011E00008600025C56001258D8006E00A6808605A
:1011F000C26010618D886D1C8D800025056170BDF9
:10120000580000100412001008B500BF00BF6A4665
:1012100000211A480068FFF79BFAFFF71FFA1848E9
:101220000068401C164908600846006800F007087E
:10123000144800EBC8073C681AE0E668104960698A
:101240000968884213D1204600F01EF894F8240063
:10125000022804D101212046FFF7A0FF02E002206E
:1012600084F82500656815B12046A168A847344672
:10127000002CE2D1FFF712FAC9E70000600000106D
:10128000580000100412001030B5456905F007043D
:101290000D4D05EBC4031D68854205D1C168196079
:1012A00039B100250D6104E00169C268CA6002B16C
:1012B0001161012580F825500025C56005619D88D4
:1012C0006D1E9D8030BD000004120010411E4FF0C5
:1012D000E0225161FF21084A11704FF0E0210969B5
:1012E00041F005014FF0E02211611146096941F01A
:1012F000020111617047000023ED00E02DE9F04F7D
:1013000005460F4690469946A87A1F490E5C05F19E
:101310000B00805D11F800B00BEBC60000F0FF0A77
:101320001A4850F82A40002004F12404E0602760A5
:10133000207C6FEA0801C9B200EA0100207484F839
:101340001190207CA4F1240410F0080F0DD194F822
:101350003A000F49097808430D4908700D48805D2F
:1013600094F8391008430B4988552946204600F067
:1013700013F8206A20B12046216A00F026F8E561C2
:101380005046BDE8F08F0000E02000001C05001072
:10139000250000102600001010B590F8382001F14B
:1013A0000B039B5C90F83940E443E4B2234001F125
:1013B0000B04A35423469B5C33B98B7A90F83A40D4
:1013C000E443E4B223408B7210BDF0B5024612F83C
:1013D000384F95785678A2F138020B46186819E014
:1013E00000F10B073F5D6FEA060C0CF0FF0C07EAFB
:1013F0000C0700F10B0C0CF8047067463F5D3FB919
:10140000877A6FEA050C0CF0FF0C07EA0C0787726D
:101410001B1D18680028E3D1F0BD000010B51D4A5F
:101420001268D0611B4A126892F8383000F10B0242
:10143000D25C184B1B6893F839301A43154B1B6864
:1014400093F8384000F10B031A55827A114B1B6850
:1014500093F83A301A4382720E4A126892F83810A2
:101460000D4A525C0B4B1B6893F83930DB43DBB2FF
:101470001A40094B5A541A46525C52B9054A12682E
:1014800092F83A20D243D2B2044B1B781A40034B55
:101490001A7010BD34000010260000102500001046
:1014A000014600228A72002005E0002301F10B02B0
:1014B0001354421CD0B20828F7D370472DE9F041ED
:1014C0005021114800F040F900250DE0681C86B25B
:1014D0000D4800EB051400EB061700202070676034
:1014E0000AA0E060681C85B2042DEFD3064800EB2B
:1014F000051400202070606004A0E06002480449E8
:101500000860BDE8F08100004C0300103F000000BF
:101510001000001030B501464A6808682AB9CC6846
:10152000606028B10025456002E0106000B14260B3
:101530008B6800259D6230BD70B54FF4F071134883
:1015400000F002F9002411E0601C85B204EB4400B5
:101550000E4901EBC00305EB450001EBC00600207E
:1015600018705E600AA05861601C84B2132CEBD323
:1015700004EB4400054901EBC003002018705860DB
:1015800003A0586108460349086070BD6C01001053
:101590003F0000000C00001000200A4908600A49C2
:1015A00008700A4908700A4908700A4908700A490F
:1015B00008600A4908600A4908600A4908600A493F
:1015C0000870704750000010210000102200001029
:1015D0002F0000102E000010080000103000001036
:1015E0001C000010180000102000001000210A4A02
:1015F0001170002004E00021084A1154411CC8B2B7
:101600000828F8D30021064A1170064A1170064ACC
:101610001160064A11607047250000102600001076
:1016200023000010240000103C00001034000010C3
:1016300070B54FF4F261194800F086F84FF48071EC
:10164000174800F081F8002413E0601CC5B204EBD9
:10165000440000EBC400114901EBC00305EB450059
:1016600000EBC50001EBC0065E610EA01865601CB2
:10167000C4B2152CE9D304EB440000EBC4000749C5
:1016800001EBC0030020586106A018650020064940
:10169000086002480549086070BD00001C06001083
:1016A0001C0500103F000000400000103800001032
:1016B00000B587B00320002120220A4BCDE901327A
:1016C000CDE903104FF6FF703F23064A7C320090AD
:1016D0000548FFF739F906AA04A13F20FFF75EFA93
:1016E00007B000BD9C040010E919000075432F4F9E
:1016F000532D49492049646C6500000000B587B04E
:101700000320002140220A4BCDE90132CDE903102C
:101710004FF6FE703E23064AFC3200900548FFF764
:1017200013F906AA04A13E20FFF738FA07B000BD5E
:101730009C030010291A000075432F4F532D49496F
:10174000205374617400000004E0002200F8012BB3
:101750004A1E91B20029F8D17047000070B5782177
:101760001148FFF7F1FF00240EE004EB44000E499E
:1017700001EBC005601C00EB400001EBC00068609D
:101780000AA06861601C84B2042CEED304EB440010
:10179000054901EBC0050020686004A068610846A7
:1017A0000349086070BD0000AC0D00103F00000050
:1017B000480000102DE9F04160211048FFF7C4FFF8
:1017C00000240DE0601C86B204EB44000B4901EBE1
:1017D000C00506EB460001EBC0072F60601C84B219
:1017E000032CEFD304EB4400044901EBC0050020B7
:1017F0002860084602490860BDE8F081240E001008
:101800004C00001010B50024FEF78EFC044613486F
:101810000078F8B912480078E0B900F02DF81148C6
:101820001149097850F82100104908600E480078E5
:101830000F49097888420DD00C480068C06B401CE5
:101840000A490968C8630B480068401C09490860D8
:10185000FEF781FC2046FEF76BFC10BD2100001056
:10186000220000101C050010240000103C00001095
:1018700023000010080000100649074A1278885C0F
:101880000649095C034A515C01EBC001044A11702E
:1018900070470000E0200000250000102600001026
:1018A000240000102DE9F84F05460F469046994652
:1018B000DDE90AAB00200090FEF736FC00904348BB
:1018C0000468002C7CD004F11C0454F8080C3F4937
:1018D00008600098FEF72CFC44F81C7CA5760020DC
:1018E00020766076606144F818BC44F810AC44F887
:1018F000148C0C9824F80C0C24F80A9C0020E07737
:10190000E810207705F00700E076217F012088406D
:10191000A077E17E01208840607700202060606031
:10192000E060A0602062A0626062E062206328A0A4
:101930006063A4F11C044FF0000606E0002104F1EE
:10194000540040F82610701CC6B2002EF6D0204677
:10195000FEF7F4FF2046FFF757F8FEF7E5FB00908F
:101960001C4840F825401C48006860610020A061C8
:101970001948006810B1184800688461164804606E
:1019800004F13804A0781549097840EA01001349A8
:10199000087020781249085C617840EA010014F868
:1019A00038190F4A50540F48007800F101000D49D2
:1019B00008700098FEF7BCFB0020BDE8F88FFFE739
:1019C0000098FEF7B5FB4220F7E700003800001052
:1019D0003F0000001C050010400000102500001012
:1019E000260000102F000010002400BF00BFFEF7EB
:1019F0009BFB044605480068401C044908602046DB
:101A0000FEF796FBFFF7C6F8F1E700003000001084
:101A100010B504480068FEF76EFCFF20FEF7FAFFE1
:101A200010BD000034000010002400BF02E0C820F8
:101A3000FFF7FAF9194800780028F8D0184800682C
:101A40006421B0FBF1F0164908600846006828B927
:101A5000002014490870FF20FFF784F900BFFEF74B
:101A600063FB0446104800681049086000200E49D6
:101A700008602046FEF75CFB0C48006808490968CE
:101A8000B0FBF1F0C0F1640006490870FFF7C8F838
:101A900000F00EF86420FFF7C7F9E0E7200000101F
:101AA0001800001014000010300000101C0000107E
:101AB0007CB5002514E069462846FFF7B5F80646D0
:101AC00066B9094850F8254044B1012C06D0D4E944
:101AD000020100EB8100A0640198E064681CC5B2BB
:101AE0003F2DE8D97CBD00001C05001012F0010F4D
:101AF00008D012F0020F05D002E0491E002308C0F2
:101B00000029FAD1704710B50446A2786178207890
:101B100000F06CFAE2786178207800F087FA227998
:101B20006178207800F04AFA10BD1CB500208DF8CD
:101B300002008DF801008DF800006846FFF7E3FF12
:101B400001208DF801006846FFF7DDFF02208DF8C7
:101B500001006846FFF7D7FF03208DF801006846B3
:101B6000FFF7D1FF01220F210020FEF7AFFB0F216D
:101B70000020FEF71DFC1CBD70B504460D460E4846
:101B8000844200D103E086210CA000F0E7F90DB1FA
:101B9000012D00D103E0872108A000F0DFF9012D1D
:101BA00004D1207A40F00800207203E0207A20F06F
:101BB0000800207270BD000000000B402E2E5C4C0F
:101BC00069627261726965735C4C435031373638B3
:101BD0005F5374645065726970685F4472697665BA
:101BE000725C736F757263655C6C706331377878A3
:101BF0005F7269742E63000010B50E480068401CC7
:101C00000C49086008460068A0F59C41203906D1BF
:101C10000020084908600F21FEF7CAFB09E00548CB
:101C20000068A0F51C51103903D10F210020FEF7E8
:101C300043FB10BD6800001010B504460C488442F8
:101C400000D103E03D210BA000F088F90121080438
:101C5000FEF7DEFA01210804FEF752FB4FF0FF30D9
:101C60002060002060600C2020720020E06010BD29
:101C700000000B402E2E5C4C6962726172696573C4
:101C80005C4C4350313736385F5374645065726929
:101C900070685F4472697665725C736F75726365B4
:101CA0005C6C7063313778785F7269742E63000002
:101CB00010B5042002461C4B19684FF6FF0319406B
:101CC0001A4B0B4343EA0221174B196000BF1D203A
:101CD0000021002808DACA06140E134A0C3200F05C
:101CE0000F031B1FD45403E0CA06130E104A1354EB
:101CF00000BF1048FFF7A0FF05210E4800F01EF8B6
:101D000001210C48FFF738FF1D20012181404209C5
:101D10004FF0E02303EB8202C2F8001100BF002065
:101D20000549086010BD00000CED00E00000FA0558
:101D300000E400E000000B40680000102DE9F041D5
:101D400004460E460B48844200D103E068210AA0F5
:101D500000F004F93A20FEF77BFA05461548B5FB7A
:101D6000F0F000FB06F72760207A40F002002072B6
:101D7000BDE8F08100000B402E2E5C4C6962726160
:101D8000726965735C4C4350313736385F53746405
:101D90005065726970685F4472697665725C736FD2
:101DA000757263655C6C7063313778785F726974E3
:101DB0002E630000A086010010B5FEF7B5F90446B9
:101DC00006480078401C054908702046FEF7B0F927
:101DD000FFF7ACF8FEF7FAFB10BD00002100001081
:101DE0002020464908604648D0F8A00110F0200F96
:101DF00005D000BF4148006810F0400FFAD0032022
:101E0000404908604FF000003D49C1F8A8013E4933
:101E100008604FF001003D4908603D483D490860B9
:101E20004FF0AA003C4908604FF0550008604FF0A1
:101E300001003A4908604FF0AA00374908604FF0A6
:101E400055002F49C1F88C0000BF3548006810F0DC
:101E5000806FFAD00320314908604FF0AA0028496A
:101E6000C1F88C004FF055002B49086000BF2C488A
:101E7000006810F0407FFAD023202A4908604FF014
:101E8000AA001F49C1F8AC004FF055002649086070
:101E90004FF00100254908604FF0AA002249086070
:101EA0004FF055001649C1F8AC0000BF204800684B
:101EB00010F4806FFAD003201C4908604FF0AA008C
:101EC0000F49C1F8AC004FF055001749086000BF3A
:101ED0001748006810F4407FFAD016481649086089
:101EE0004FF000000649C1F8C80143F23A0008600B
:101EF0004FF000001149086070470000A0C10F407A
:101F000000C00F4004C10F40ACC10F400CC10F40D6
:101F10006300050084C00F408CC00F4080C00F409C
:101F200088C00F40A4C00F40ACC00F40A0C00F40FD
:101F3000A8C00F40DE872804C4C00F4008ED00E0B1
:101F400002E008C8121F08C1002AFAD17047002019
:101F500001E001C1121F002AFBD1704700BFFEE75C
:101F600000B587B09DF818000690FEF71AF9FEF745
:101F70000BFB0320002140220B4BCDE90132CDE9C0
:101F8000031001200346084AFC3200900748FEF780
:101F9000DBFC069006AA06A10120FEF7FFFDFEF776
:101FA00083FC002007B000BD6C000010DD010000C4
:101FB0005374617274205461736B000030B50B462A
:101FC0000949012A07D151F8204001259D402C43A1
:101FD00041F8204006E051F8204001259D40AC43E7
:101FE00041F8204030BD000068C00240F0B5044612
:101FF0000B461546194660000B4A102901D31039CB
:10200000401C52F820604FEA410C032707FA0CF7F6
:10201000BE4342F8206052F820604F0005FA07F7EF
:102020003E4342F82060F0BD00C00240F0B50446D7
:102030000B461546194660000B4A102901D310398A
:10204000401C52F820604FEA410C032707FA0CF7B6
:10205000BE4342F8206052F820604F0005FA07F7AF
:102060003E4342F82060F0BD40C002400100000045
:10207000785634120100140001001800E00101003C
:102080000100100014000200050001003F000100E3
:1020900001000500010018007800010004000100A3
:1020A0000400180008000100040001000100010004
:1020B00020000100160001000100400001000100A5
:1020C000010040005800E803010023010100100056
:1020D000010008000A0028008002080040003211B8
:1020E00000000100020001000300010002000100E5
:1020F00004000100020001000300010002000100D1
:1021000005000100020001000300010002000100BF
:1021100004000100020001000300010002000100B0
:10212000060001000200010003000100020001009E
:102130000400010002000100030001000200010090
:10214000050001000200010003000100020001007F
:102150000400010002000100030001000200010070
:10216000070001000200010003000100020001005D
:102170000400010002000100030001000200010050
:10218000050001000200010003000100020001003F
:102190000400010002000100030001000200010030
:1021A000060001000200010003000100020001001E
:1021B0000400010002000100030001000200010010
:1021C00005000100020001000300010002000100FF
:1021D00004000100020001000300010002000100F0
:1021E00000220000000000106C000000401F0000F2
:1021F0006C2200006C000010DC1300004E1F000079
:1022000000E1F505000000000000000000000000F3
:1022100000000000000000000000000000000000BE
:1022200000000000000000000000000000000000AE
:10223000000000000000000000000000000000009E
:10224000000000000000000000000000000000008E
:10225000000000000000000000000000000000007E
:0C22600000000000000000000000000072
:04000005000000CD2A
:00000001FF
